{
  "transactions": [
    {
      "hash": "0x3ac60aae15e9c11f2e9647fa8ac70799bab8c899266acbcafe45eaeb50a577b6",
      "transactionType": "CREATE",
      "contractName": "ExecutionBoundCaveat",
      "contractAddress": "0xd4c2d166839a6ccdb9bf0f3cd292686587ae9eb6",
      "function": null,
      "arguments": null,
      "transaction": {
        "from": "0x34bb8a6d8e8e81da6a6f3d51bf5bd25f2e5ef5a6",
        "value": "0x0",
        "input": "0x60a060405234801561000f575f80fd5b50604080517f8b73c3c69bb8fe3d512ecc4cf759cc79239f7b179b0ffacaa9a75d522b39400f60208201527fe9826be4d1dd3ba4dc6341db7b153868764530005fd8297b93b795cdd4061bed918101919091527fc89efdaa54c0f20c7adf612882df0950f5a951637e0307cdcb4c672f298b8bc660608201524660808201523060a082015260c00160408051601f198184030181529190528051602090910120608052608051610cd86100d75f395f8181608e015281816103bd01526104990152610cd85ff3fe608060405234801561000f575f80fd5b5060043610610085575f3560e01c8063a145832a11610058578063a145832a14610161578063b06d312614610174578063d3eddcc514610113578063ed46336714610113575f80fd5b80633644e5151461008957806337a53a37146100c3578063414c3e331461011357806394157cc51461012f575b5f80fd5b6100b07f000000000000000000000000000000000000000000000000000000000000000081565b6040519081526020015b60405180910390f35b6101036100d1366004610870565b6001600160a01b039283165f908152602081815260408083209490951682529283528381209181529152205460ff1690565b60405190151581526020016100ba565b61012d6101213660046108f3565b50505050505050505050565b005b61010361013d366004610870565b5f602081815293815260408082208552928152828120909352825290205460ff1681565b61012d61016f3660046108f3565b610187565b6100b06101823660046109bd565b610493565b6001600160f81b03198616156101b057604051636e50bcf760e01b815260040160405180910390fd5b5f80806101bf8a8c018c610aa2565b9250925092505f80365f6101d38c8c6104d3565b9350935093509350886001600160a01b0316875f01516001600160a01b03161461022b57865160405163587eb17160e11b81526001600160a01b039182166004820152908a1660248201526044015b60405180910390fd5b836001600160a01b031687602001516001600160a01b03161461027a57602087015160405163974eb9cb60e01b81526001600160a01b0391821660048201529085166024820152604401610222565b828760400151146102af57866040015183604051630626ade360e41b8152600401610222929190918252602082015260400190565b5f82826040516102c0929190610b58565b60405180910390209050808860600151146102fe576060880151604051636f205f0f60e11b8152600481019190915260248101829052604401610222565b60a08801511580159061031457508760a0015142115b156103415760a0880151604051633784773760e11b81526004810191909152426024820152604401610222565b87516001600160a01b039081165f90815260208181526040808320938b16835292815282822060808c015183529052205460ff16156103b357875160808901516040516390f4916160e01b81526001600160a01b03928316600482015291891660248301526044820152606401610222565b6103e7876103e18a7f0000000000000000000000000000000000000000000000000000000000000000610523565b8861056a565b61040457604051638baa579f60e01b815260040160405180910390fd5b87516001600160a01b039081165f908152602081815260408083208b851680855290835281842060808e018051865290845293829020805460ff191660011790558c51935191519182529392909216917f3a37ea654e239f4f6554c1c0498a74550b2c9f20cf8ff06b1b5372ae638a3394910160405180910390a3505050505050505050505050505050505050565b5f6104cd7f00000000000000000000000000000000000000000000000000000000000000006104c736859003850185610b67565b90610523565b92915050565b5f8036816104e46014828789610b88565b6104ed91610baf565b60601c9350610500603460148789610b88565b61050991610be4565b92506105188560348189610b88565b949793965094505050565b5f8161052e846105c9565b60405161190160f01b60208201526022810192909252604282015260620160405160208183030381529060405280519060200120905092915050565b5f805f6105778585610672565b5090925090505f81600381111561059057610590610c01565b1480156105ae5750856001600160a01b0316826001600160a01b0316145b806105bf57506105bf8686866106bb565b9695505050505050565b5f7fd0a8d3599cfd24730ec7e9568dd309d416e81db3305f9a9e19d1ee68e85f6c2b825f015183602001518460400151856060015186608001518760a0015160405160200161065597969594939291909687526001600160a01b0395861660208801529390941660408601526060850191909152608084015260a083019190915260c082015260e00190565b604051602081830303815290604052805190602001209050919050565b5f805f83516041036106a9576020840151604085015160608601515f1a61069b88828585610791565b9550955095505050506106b4565b505081515f91506002905b9250925092565b5f805f856001600160a01b031685856040516024016106db929190610c37565b60408051601f198184030181529181526020820180516001600160e01b0316630b135d3f60e11b179052516107109190610c70565b5f60405180830381855afa9150503d805f8114610748576040519150601f19603f3d011682016040523d82523d5f602084013e61074d565b606091505b509150915081801561076157506020815110155b80156105bf57508051630b135d3f60e11b906107869083016020908101908401610c8b565b149695505050505050565b5f80807f7fffffffffffffffffffffffffffffff5d576e7357a4501ddfe92f46681b20a08411156107ca57505f9150600390508261084f565b604080515f808252602082018084528a905260ff891692820192909252606081018790526080810186905260019060a0016020604051602081039080840390855afa15801561081b573d5f803e3d5ffd5b5050604051601f1901519150506001600160a01b03811661084657505f92506001915082905061084f565b92505f91508190505b9450945094915050565b6001600160a01b038116811461086d575f80fd5b50565b5f805f60608486031215610882575f80fd5b833561088d81610859565b9250602084013561089d81610859565b929592945050506040919091013590565b5f8083601f8401126108be575f80fd5b50813567ffffffffffffffff8111156108d5575f80fd5b6020830191508360208285010111156108ec575f80fd5b9250929050565b5f805f805f805f805f8060e08b8d03121561090c575f80fd5b8a3567ffffffffffffffff80821115610923575f80fd5b61092f8e838f016108ae565b909c509a5060208d0135915080821115610947575f80fd5b6109538e838f016108ae565b909a50985060408d0135975060608d0135915080821115610972575f80fd5b5061097f8d828e016108ae565b90965094505060808b0135925060a08b013561099a81610859565b915060c08b01356109aa81610859565b809150509295989b9194979a5092959850565b5f60c082840312156109cd575f80fd5b50919050565b634e487b7160e01b5f52604160045260245ffd5b604051601f8201601f1916810167ffffffffffffffff81118282101715610a1057610a106109d3565b604052919050565b5f60c08284031215610a28575f80fd5b60405160c0810181811067ffffffffffffffff82111715610a4b57610a4b6109d3565b6040529050808235610a5c81610859565b81526020830135610a6c81610859565b8060208301525060408301356040820152606083013560608201526080830135608082015260a083013560a08201525092915050565b5f805f6101008486031215610ab5575f80fd5b610abf8585610a18565b925060c0840135610acf81610859565b915060e084013567ffffffffffffffff80821115610aeb575f80fd5b818601915086601f830112610afe575f80fd5b813581811115610b1057610b106109d3565b610b23601f8201601f19166020016109e7565b9150808252876020828501011115610b39575f80fd5b806020840160208401375f602082840101525080925050509250925092565b818382375f9101908152919050565b5f60c08284031215610b77575f80fd5b610b818383610a18565b9392505050565b5f8085851115610b96575f80fd5b83861115610ba2575f80fd5b5050820193919092039150565b6bffffffffffffffffffffffff198135818116916014851015610bdc5780818660140360031b1b83161692505b505092915050565b803560208310156104cd575f19602084900360031b1b1692915050565b634e487b7160e01b5f52602160045260245ffd5b5f5b83811015610c2f578181015183820152602001610c17565b50505f910152565b828152604060208201525f8251806040840152610c5b816060850160208701610c15565b601f01601f1916919091016060019392505050565b5f8251610c81818460208701610c15565b9190910192915050565b5f60208284031215610c9b575f80fd5b505191905056fea264697066735822122071cb9c5ddd68984f7b9259eb7417273a610f3c3f541581ed574d25adeb3c8ae064736f6c63430008170033",
        "nonce": "0x0",
        "chainId": "0x14a34"
      },
      "additionalContracts": [],
      "isFixedGasLimit": false
    },
    {
      "hash": "0xc33aa4790744fc5ec908f24b65d79848affef415a2f8882a3225a33c641e4778",
      "transactionType": "CREATE",
      "contractName": "DemoTarget",
      "contractAddress": "0x6baac44b3dc269012829e591d256ea8d5d8f15db",
      "function": null,
      "arguments": null,
      "transaction": {
        "from": "0x34bb8a6d8e8e81da6a6f3d51bf5bd25f2e5ef5a6",
        "value": "0x0",
        "input": "0x608060405234801561000f575f80fd5b5060e48061001c5f395ff3fe6080604052348015600e575f80fd5b50600436106030575f3560e01c80633fa4f2451460345780635524107714604d575b5f80fd5b603b5f5481565b60405190815260200160405180910390f35b605c60583660046098565b605e565b005b5f8190556040518181527f012c78e2b84325878b1bd9d250d772cfe5bda7722d795f45036fa5e1e6e303fc9060200160405180910390a150565b5f6020828403121560a7575f80fd5b503591905056fea264697066735822122032d263b7fe727e60e58e97bccf37301ecb9f4d9cd9335c7ae959263aa879780264736f6c63430008170033",
        "nonce": "0x1",
        "chainId": "0x14a34"
      },
      "additionalContracts": [],
      "isFixedGasLimit": false
    },
    {
      "hash": "0x5cc8dcaf1e3092115108dd214ad585ad8540c2756eb444720c34c888afc7b81e",
      "transactionType": "CREATE",
      "contractName": "ERC1967Proxy",
      "contractAddress": "0xa7858cbb8be2cd50cc9e04e62ecd58bf86381137",
      "function": null,
      "arguments": [
        "0x48dBe696A4D990079e039489bA2053B36E8FFEC4",
        "0x8ebf953300000000000000000000000034bb8a6d8e8e81da6a6f3d51bf5bd25f2e5ef5a6000000000000000000000000000000000000000000000000000000000000008000000000000000000000000000000000000000000000000000000000000000a000000000000000000000000000000000000000000000000000000000000000c0000000000000000000000000000000000000000000000000000000000000000000000000000000000000000000000000000000000000000000000000000000000000000000000000000000000000000000000000000000000000000000000000"
      ],
      "transaction": {
        "from": "0x34bb8a6d8e8e81da6a6f3d51bf5bd25f2e5ef5a6",
        "value": "0x0",
        "input": "0x60806040526040516103f03803806103f08339810160408190526100229161025e565b61002c8282610033565b5050610341565b61003c82610091565b6040516001600160a01b038316907fbc7cd75a20ee27fd9adebab32041f755214dbc6bffa90cc0225b39da2e5c2d3b905f90a280511561008557610080828261010c565b505050565b61008d61017f565b5050565b806001600160a01b03163b5f036100cb57604051634c9c8ce360e01b81526001600160a01b03821660048201526024015b60405180910390fd5b7f360894a13ba1a3210667c828492db98dca3e2076cc3735a920a3ca505d382bbc80546001600160a01b0319166001600160a01b0392909216919091179055565b60605f80846001600160a01b0316846040516101289190610326565b5f60405180830381855af49150503d805f8114610160576040519150601f19603f3d011682016040523d82523d5f602084013e610165565b606091505b5090925090506101768583836101a0565b95945050505050565b341561019e5760405163b398979f60e01b815260040160405180910390fd5b565b6060826101b5576101b0826101ff565b6101f8565b81511580156101cc57506001600160a01b0384163b155b156101f557604051639996b31560e01b81526001600160a01b03851660048201526024016100c2565b50805b9392505050565b80511561020f5780518082602001fd5b604051630a12f52160e11b815260040160405180910390fd5b634e487b7160e01b5f52604160045260245ffd5b5f5b8381101561025657818101518382015260200161023e565b50505f910152565b5f806040838503121561026f575f80fd5b82516001600160a01b0381168114610285575f80fd5b60208401519092506001600160401b03808211156102a1575f80fd5b818501915085601f8301126102b4575f80fd5b8151818111156102c6576102c6610228565b604051601f8201601f19908116603f011681019083821181831017156102ee576102ee610228565b81604052828152886020848701011115610306575f80fd5b61031783602083016020880161023c565b80955050505050509250929050565b5f825161033781846020870161023c565b9190910192915050565b60a38061034d5f395ff3fe6080604052600a600c565b005b60186014601a565b6050565b565b5f604b7f360894a13ba1a3210667c828492db98dca3e2076cc3735a920a3ca505d382bbc546001600160a01b031690565b905090565b365f80375f80365f845af43d5f803e8080156069573d5ff35b3d5ffdfea2646970667358221220c7b40d420dc0825b1db05dcfd2edb5042899571c82a2a6e3161b9db0c940beaa64736f6c6343000817003300000000000000000000000048dbe696a4d990079e039489ba2053b36e8ffec4000000000000000000000000000000000000000000000000000000000000004000000000000000000000000000000000000000000000000000000000000000e48ebf953300000000000000000000000034bb8a6d8e8e81da6a6f3d51bf5bd25f2e5ef5a6000000000000000000000000000000000000000000000000000000000000008000000000000000000000000000000000000000000000000000000000000000a000000000000000000000000000000000000000000000000000000000000000c000000000000000000000000000000000000000000000000000000000000000000000000000000000000000000000000000000000000000000000000000000000000000000000000000000000000000000000000000000000000000000000000000000000000000000000000000000000000000000000000000000000",
        "nonce": "0x2",
        "chainId": "0x14a34"
      },
      "additionalContracts": [],
      "isFixedGasLimit": false
    },
    {
      "hash": "0x03197ac7f52ce016449270efc564b1d3ab547e70bdb0bdd4ff0007d136264801",
      "transactionType": "CALL",
      "contractName": null,
      "contractAddress": "0xdb9b1e94b5b69df7e401ddbede43491141047db3",
      "function": "redeemDelegations(bytes[],bytes32[],bytes[])",
      "arguments": [
        "[0x00000000000000000000000000000000000000000000000000000000000000200000000000000000000000000000000000000000000000000000000000000001000000000000000000000000000000000000000000000000000000000000002000000000000000000000000034bb8a6d8e8e81da6a6f3d51bf5bd25f2e5ef5a6000000000000000000000000a7858cbb8be2cd50cc9e04e62ecd58bf86381137ffffffffffffffffffffffffffffffffffffffffffffffffffffffffffffffff00000000000000000000000000000000000000000000000000000000000000c00000000000000000000000000000000000000000000000000000000000000000000000000000000000000000000000000000000000000000000000000000032000000000000000000000000000000000000000000000000000000000000000010000000000000000000000000000000000000000000000000000000000000020000000000000000000000000d4c2d166839a6ccdb9bf0f3cd292686587ae9eb60000000000000000000000000000000000000000000000000000000000000060000000000000000000000000000000000000000000000000000000000000008000000000000000000000000000000000000000000000000000000000000000000000000000000000000000000000000000000000000000000000000000000180000000000000000000000000a7858cbb8be2cd50cc9e04e62ecd58bf863811370000000000000000000000006baac44b3dc269012829e591d256ea8d5d8f15db00000000000000000000000000000000000000000000000000000000000000001ba4ef4b044b349263d97bfcb75527e90fc4b4237bef8d8cef16daded42c71e00000000000000000000000000000000000000000000000000000000000000000000000000000000000000000000000000000000000000000000000000000000000000000000000000000000034bb8a6d8e8e81da6a6f3d51bf5bd25f2e5ef5a600000000000000000000000000000000000000000000000000000000000001000000000000000000000000000000000000000000000000000000000000000041ab7045ad9c3a657ba56a469620f7908f5e93cf891a16c66ae88fe411693e8b51517863fd7d37953c05b937033639f234c8a4e9ed30ed3508ea48263083a3abcc1c00000000000000000000000000000000000000000000000000000000000000000000000000000000000000000000000000000000000000000000000000004180c036607e3b5d36c4940788831cc78566d9fe8321239e16809d0185af337dd92a0abe151dd62510a2745df37b4e5fdaf4c35d9ed608c079c0593bd81a4a80d41c00000000000000000000000000000000000000000000000000000000000000]",
        "[0x0000000000000000000000000000000000000000000000000000000000000000]",
        "[0x6baac44b3dc269012829e591d256ea8d5d8f15db000000000000000000000000000000000000000000000000000000000000000055241077000000000000000000000000000000000000000000000000000000000000002a]"
      ],
      "transaction": {
        "from": "0x34bb8a6d8e8e81da6a6f3d51bf5bd25f2e5ef5a6",
        "to": "0xdb9b1e94b5b69df7e401ddbede43491141047db3",
        "value": "0x0",
        "input": "0xcef6d209000000000000000000000000000000000000000000000000000000000000006000000000000000000000000000000000000000000000000000000000000004c0000000000000000000000000000000000000000000000000000000000000050000000000000000000000000000000000000000000000000000000000000000010000000000000000000000000000000000000000000000000000000000000020000000000000000000000000000000000000000000000000000000000000040000000000000000000000000000000000000000000000000000000000000000200000000000000000000000000000000000000000000000000000000000000001000000000000000000000000000000000000000000000000000000000000002000000000000000000000000034bb8a6d8e8e81da6a6f3d51bf5bd25f2e5ef5a6000000000000000000000000a7858cbb8be2cd50cc9e04e62ecd58bf86381137ffffffffffffffffffffffffffffffffffffffffffffffffffffffffffffffff00000000000000000000000000000000000000000000000000000000000000c00000000000000000000000000000000000000000000000000000000000000000000000000000000000000000000000000000000000000000000000000000032000000000000000000000000000000000000000000000000000000000000000010000000000000000000000000000000000000000000000000000000000000020000000000000000000000000d4c2d166839a6ccdb9bf0f3cd292686587ae9eb60000000000000000000000000000000000000000000000000000000000000060000000000000000000000000000000000000000000000000000000000000008000000000000000000000000000000000000000000000000000000000000000000000000000000000000000000000000000000000000000000000000000000180000000000000000000000000a7858cbb8be2cd50cc9e04e62ecd58bf863811370000000000000000000000006baac44b3dc269012829e591d256ea8d5d8f15db00000000000000000000000000000000000000000000000000000000000000001ba4ef4b044b349263d97bfcb75527e90fc4b4237bef8d8cef16daded42c71e00000000000000000000000000000000000000000000000000000000000000000000000000000000000000000000000000000000000000000000000000000000000000000000000000000000034bb8a6d8e8e81da6a6f3d51bf5bd25f2e5ef5a600000000000000000000000000000000000000000000000000000000000001000000000000000000000000000000000000000000000000000000000000000041ab7045ad9c3a657ba56a469620f7908f5e93cf891a16c66ae88fe411693e8b51517863fd7d37953c05b937033639f234c8a4e9ed30ed3508ea48263083a3abcc1c00000000000000000000000000000000000000000000000000000000000000000000000000000000000000000000000000000000000000000000000000004180c036607e3b5d36c4940788831cc78566d9fe8321239e16809d0185af337dd92a0abe151dd62510a2745df37b4e5fdaf4c35d9ed608c079c0593bd81a4a80d41c00000000000000000000000000000000000000000000000000000000000000000000000000000000000000000000000000000000000000000000000000000100000000000000000000000000000000000000000000000000000000000000000000000000000000000000000000000000000000000000000000000000000001000000000000000000000000000000000000000000000000000000000000002000000000000000000000000000000000000000000000000000000000000000586baac44b3dc269012829e591d256ea8d5d8f15db000000000000000000000000000000000000000000000000000000000000000055241077000000000000000000000000000000000000000000000000000000000000002a0000000000000000",
        "nonce": "0x3",
        "chainId": "0x14a34"
      },
      "additionalContracts": [],
      "isFixedGasLimit": false
    },
    {
      "hash": null,
      "transactionType": "CALL",
      "contractName": null,
      "contractAddress": "0xdb9b1e94b5b69df7e401ddbede43491141047db3",
      "function": "redeemDelegations(bytes[],bytes32[],bytes[])",
      "arguments": [
        "[0x00000000000000000000000000000000000000000000000000000000000000200000000000000000000000000000000000000000000000000000000000000001000000000000000000000000000000000000000000000000000000000000002000000000000000000000000034bb8a6d8e8e81da6a6f3d51bf5bd25f2e5ef5a6000000000000000000000000a7858cbb8be2cd50cc9e04e62ecd58bf86381137ffffffffffffffffffffffffffffffffffffffffffffffffffffffffffffffff00000000000000000000000000000000000000000000000000000000000000c00000000000000000000000000000000000000000000000000000000000000000000000000000000000000000000000000000000000000000000000000000032000000000000000000000000000000000000000000000000000000000000000010000000000000000000000000000000000000000000000000000000000000020000000000000000000000000d4c2d166839a6ccdb9bf0f3cd292686587ae9eb60000000000000000000000000000000000000000000000000000000000000060000000000000000000000000000000000000000000000000000000000000008000000000000000000000000000000000000000000000000000000000000000000000000000000000000000000000000000000000000000000000000000000180000000000000000000000000a7858cbb8be2cd50cc9e04e62ecd58bf863811370000000000000000000000006baac44b3dc269012829e591d256ea8d5d8f15db00000000000000000000000000000000000000000000000000000000000000001ba4ef4b044b349263d97bfcb75527e90fc4b4237bef8d8cef16daded42c71e00000000000000000000000000000000000000000000000000000000000000000000000000000000000000000000000000000000000000000000000000000000000000000000000000000000034bb8a6d8e8e81da6a6f3d51bf5bd25f2e5ef5a600000000000000000000000000000000000000000000000000000000000001000000000000000000000000000000000000000000000000000000000000000041ab7045ad9c3a657ba56a469620f7908f5e93cf891a16c66ae88fe411693e8b51517863fd7d37953c05b937033639f234c8a4e9ed30ed3508ea48263083a3abcc1c00000000000000000000000000000000000000000000000000000000000000000000000000000000000000000000000000000000000000000000000000004180c036607e3b5d36c4940788831cc78566d9fe8321239e16809d0185af337dd92a0abe151dd62510a2745df37b4e5fdaf4c35d9ed608c079c0593bd81a4a80d41c00000000000000000000000000000000000000000000000000000000000000]",
        "[0x0000000000000000000000000000000000000000000000000000000000000000]",
        "[0x6baac44b3dc269012829e591d256ea8d5d8f15db00000000000000000000000000000000000000000000000000000000000000005524107700000000000000000000000000000000000000000000000000000000000003e7]"
      ],
      "transaction": {
        "from": "0x34bb8a6d8e8e81da6a6f3d51bf5bd25f2e5ef5a6",
        "to": "0xdb9b1e94b5b69df7e401ddbede43491141047db3",
        "value": "0x0",
        "input": "0xcef6d209000000000000000000000000000000000000000000000000000000000000006000000000000000000000000000000000000000000000000000000000000004c0000000000000000000000000000000000000000000000000000000000000050000000000000000000000000000000000000000000000000000000000000000010000000000000000000000000000000000000000000000000000000000000020000000000000000000000000000000000000000000000000000000000000040000000000000000000000000000000000000000000000000000000000000000200000000000000000000000000000000000000000000000000000000000000001000000000000000000000000000000000000000000000000000000000000002000000000000000000000000034bb8a6d8e8e81da6a6f3d51bf5bd25f2e5ef5a6000000000000000000000000a7858cbb8be2cd50cc9e04e62ecd58bf86381137ffffffffffffffffffffffffffffffffffffffffffffffffffffffffffffffff00000000000000000000000000000000000000000000000000000000000000c00000000000000000000000000000000000000000000000000000000000000000000000000000000000000000000000000000000000000000000000000000032000000000000000000000000000000000000000000000000000000000000000010000000000000000000000000000000000000000000000000000000000000020000000000000000000000000d4c2d166839a6ccdb9bf0f3cd292686587ae9eb60000000000000000000000000000000000000000000000000000000000000060000000000000000000000000000000000000000000000000000000000000008000000000000000000000000000000000000000000000000000000000000000000000000000000000000000000000000000000000000000000000000000000180000000000000000000000000a7858cbb8be2cd50cc9e04e62ecd58bf863811370000000000000000000000006baac44b3dc269012829e591d256ea8d5d8f15db00000000000000000000000000000000000000000000000000000000000000001ba4ef4b044b349263d97bfcb75527e90fc4b4237bef8d8cef16daded42c71e00000000000000000000000000000000000000000000000000000000000000000000000000000000000000000000000000000000000000000000000000000000000000000000000000000000034bb8a6d8e8e81da6a6f3d51bf5bd25f2e5ef5a600000000000000000000000000000000000000000000000000000000000001000000000000000000000000000000000000000000000000000000000000000041ab7045ad9c3a657ba56a469620f7908f5e93cf891a16c66ae88fe411693e8b51517863fd7d37953c05b937033639f234c8a4e9ed30ed3508ea48263083a3abcc1c00000000000000000000000000000000000000000000000000000000000000000000000000000000000000000000000000000000000000000000000000004180c036607e3b5d36c4940788831cc78566d9fe8321239e16809d0185af337dd92a0abe151dd62510a2745df37b4e5fdaf4c35d9ed608c079c0593bd81a4a80d41c00000000000000000000000000000000000000000000000000000000000000000000000000000000000000000000000000000000000000000000000000000100000000000000000000000000000000000000000000000000000000000000000000000000000000000000000000000000000000000000000000000000000001000000000000000000000000000000000000000000000000000000000000002000000000000000000000000000000000000000000000000000000000000000586baac44b3dc269012829e591d256ea8d5d8f15db00000000000000000000000000000000000000000000000000000000000000005524107700000000000000000000000000000000000000000000000000000000000003e70000000000000000",
        "nonce": "0x4",
        "chainId": "0x14a34"
      },
      "additionalContracts": [],
      "isFixedGasLimit": false
    },
    {
      "hash": null,
      "transactionType": "CALL",
      "contractName": null,
      "contractAddress": "0xdb9b1e94b5b69df7e401ddbede43491141047db3",
      "function": "redeemDelegations(bytes[],bytes32[],bytes[])",
      "arguments": [
        "[0x00000000000000000000000000000000000000000000000000000000000000200000000000000000000000000000000000000000000000000000000000000001000000000000000000000000000000000000000000000000000000000000002000000000000000000000000034bb8a6d8e8e81da6a6f3d51bf5bd25f2e5ef5a6000000000000000000000000a7858cbb8be2cd50cc9e04e62ecd58bf86381137ffffffffffffffffffffffffffffffffffffffffffffffffffffffffffffffff00000000000000000000000000000000000000000000000000000000000000c00000000000000000000000000000000000000000000000000000000000000000000000000000000000000000000000000000000000000000000000000000032000000000000000000000000000000000000000000000000000000000000000010000000000000000000000000000000000000000000000000000000000000020000000000000000000000000d4c2d166839a6ccdb9bf0f3cd292686587ae9eb60000000000000000000000000000000000000000000000000000000000000060000000000000000000000000000000000000000000000000000000000000008000000000000000000000000000000000000000000000000000000000000000000000000000000000000000000000000000000000000000000000000000000180000000000000000000000000a7858cbb8be2cd50cc9e04e62ecd58bf863811370000000000000000000000006baac44b3dc269012829e591d256ea8d5d8f15db00000000000000000000000000000000000000000000000000000000000000001ba4ef4b044b349263d97bfcb75527e90fc4b4237bef8d8cef16daded42c71e00000000000000000000000000000000000000000000000000000000000000000000000000000000000000000000000000000000000000000000000000000000000000000000000000000000034bb8a6d8e8e81da6a6f3d51bf5bd25f2e5ef5a600000000000000000000000000000000000000000000000000000000000001000000000000000000000000000000000000000000000000000000000000000041ab7045ad9c3a657ba56a469620f7908f5e93cf891a16c66ae88fe411693e8b51517863fd7d37953c05b937033639f234c8a4e9ed30ed3508ea48263083a3abcc1c00000000000000000000000000000000000000000000000000000000000000000000000000000000000000000000000000000000000000000000000000004180c036607e3b5d36c4940788831cc78566d9fe8321239e16809d0185af337dd92a0abe151dd62510a2745df37b4e5fdaf4c35d9ed608c079c0593bd81a4a80d41c00000000000000000000000000000000000000000000000000000000000000]",
        "[0x0000000000000000000000000000000000000000000000000000000000000000]",
        "[0x6baac44b3dc269012829e591d256ea8d5d8f15db000000000000000000000000000000000000000000000000000000000000000055241077000000000000000000000000000000000000000000000000000000000000002a]"
      ],
      "transaction": {
        "from": "0x34bb8a6d8e8e81da6a6f3d51bf5bd25f2e5ef5a6",
        "to": "0xdb9b1e94b5b69df7e401ddbede43491141047db3",
        "value": "0x0",
        "input": "0xcef6d209000000000000000000000000000000000000000000000000000000000000006000000000000000000000000000000000000000000000000000000000000004c0000000000000000000000000000000000000000000000000000000000000050000000000000000000000000000000000000000000000000000000000000000010000000000000000000000000000000000000000000000000000000000000020000000000000000000000000000000000000000000000000000000000000040000000000000000000000000000000000000000000000000000000000000000200000000000000000000000000000000000000000000000000000000000000001000000000000000000000000000000000000000000000000000000000000002000000000000000000000000034bb8a6d8e8e81da6a6f3d51bf5bd25f2e5ef5a6000000000000000000000000a7858cbb8be2cd50cc9e04e62ecd58bf86381137ffffffffffffffffffffffffffffffffffffffffffffffffffffffffffffffff00000000000000000000000000000000000000000000000000000000000000c00000000000000000000000000000000000000000000000000000000000000000000000000000000000000000000000000000000000000000000000000000032000000000000000000000000000000000000000000000000000000000000000010000000000000000000000000000000000000000000000000000000000000020000000000000000000000000d4c2d166839a6ccdb9bf0f3cd292686587ae9eb60000000000000000000000000000000000000000000000000000000000000060000000000000000000000000000000000000000000000000000000000000008000000000000000000000000000000000000000000000000000000000000000000000000000000000000000000000000000000000000000000000000000000180000000000000000000000000a7858cbb8be2cd50cc9e04e62ecd58bf863811370000000000000000000000006baac44b3dc269012829e591d256ea8d5d8f15db00000000000000000000000000000000000000000000000000000000000000001ba4ef4b044b349263d97bfcb75527e90fc4b4237bef8d8cef16daded42c71e00000000000000000000000000000000000000000000000000000000000000000000000000000000000000000000000000000000000000000000000000000000000000000000000000000000034bb8a6d8e8e81da6a6f3d51bf5bd25f2e5ef5a600000000000000000000000000000000000000000000000000000000000001000000000000000000000000000000000000000000000000000000000000000041ab7045ad9c3a657ba56a469620f7908f5e93cf891a16c66ae88fe411693e8b51517863fd7d37953c05b937033639f234c8a4e9ed30ed3508ea48263083a3abcc1c00000000000000000000000000000000000000000000000000000000000000000000000000000000000000000000000000000000000000000000000000004180c036607e3b5d36c4940788831cc78566d9fe8321239e16809d0185af337dd92a0abe151dd62510a2745df37b4e5fdaf4c35d9ed608c079c0593bd81a4a80d41c00000000000000000000000000000000000000000000000000000000000000000000000000000000000000000000000000000000000000000000000000000100000000000000000000000000000000000000000000000000000000000000000000000000000000000000000000000000000000000000000000000000000001000000000000000000000000000000000000000000000000000000000000002000000000000000000000000000000000000000000000000000000000000000586baac44b3dc269012829e591d256ea8d5d8f15db000000000000000000000000000000000000000000000000000000000000000055241077000000000000000000000000000000000000000000000000000000000000002a0000000000000000",
        "nonce": "0x5",
        "chainId": "0x14a34"
      },
      "additionalContracts": [],
      "isFixedGasLimit": false
    }
  ],
  "receipts": [
    {
      "status": "0x1",
      "cumulativeGasUsed": "0x25179b",
      "logs": [],
      "logsBloom": "0x00000000000000000000000000000000000000000000000000000000000000000000000000000000000000000000000000000000000000000000000000000000000000000000000000000000000000000000000000000000000000000000000000000000000000000000000000000000000000000000000000000000000000000000000000000000000000000000000000000000000000000000000000000000000000000000000000000000000000000000000000000000000000000000000000000000000000000000000000000000000000000000000000000000000000000000000000000000000000000000000000000000000000000000000000000000",
      "type": "0x2",
      "transactionHash": "0x3ac60aae15e9c11f2e9647fa8ac70799bab8c899266acbcafe45eaeb50a577b6",
      "transactionIndex": "0x3",
      "blockHash": "0x0000000000000000000000000000000000000000000000000000000000000000",
      "blockNumber": "0x2608b4b",
      "gasUsed": "0xbb205",
      "effectiveGasPrice": "0x5b8d80",
      "blobGasUsed": "0x53528",
      "from": "0x34bb8a6d8e8e81da6a6f3d51bf5bd25f2e5ef5a6",
      "to": null,
      "contractAddress": "0xd4c2d166839a6ccdb9bf0f3cd292686587ae9eb6",
      "daFootprintGasScalar": "0x94",
      "l1BaseFeeScalar": "0x44d",
      "l1BlobBaseFee": "0x4aeadf8",
      "l1BlobBaseFeeScalar": "0xa118b",
      "l1Fee": "0x5cdc25352",
      "l1GasPrice": "0x53bec3ad",
      "l1GasUsed": "0x9024"
    },
    {
      "status": "0x1",
      "cumulativeGasUsed": "0x4962af",
      "logs": [],
      "logsBloom": "0x00000000000000000000000000000000000000000000000000000000000000000000000000000000000000000000000000000000000000000000000000000000000000000000000000000000000000000000000000000000000000000000000000000000000000000000000000000000000000000000000000000000000000000000000000000000000000000000000000000000000000000000000000000000000000000000000000000000000000000000000000000000000000000000000000000000000000000000000000000000000000000000000000000000000000000000000000000000000000000000000000000000000000000000000000000000",
      "type": "0x2",
      "transactionHash": "0xc33aa4790744fc5ec908f24b65d79848affef415a2f8882a3225a33c641e4778",
      "transactionIndex": "0x10",
      "blockHash": "0x0000000000000000000000000000000000000000000000000000000000000000",
      "blockNumber": "0x2608b4c",
      "gasUsed": "0x1915d",
      "effectiveGasPrice": "0x5b8d80",
      "blobGasUsed": "0x8a2c",
      "from": "0x34bb8a6d8e8e81da6a6f3d51bf5bd25f2e5ef5a6",
      "to": null,
      "contractAddress": "0x6baac44b3dc269012829e591d256ea8d5d8f15db",
      "daFootprintGasScalar": "0x94",
      "l1BaseFeeScalar": "0x44d",
      "l1BlobBaseFee": "0x4aeadf8",
      "l1BlobBaseFeeScalar": "0xa118b",
      "l1Fee": "0x1c87d84ae",
      "l1GasPrice": "0x53bec3ad",
      "l1GasUsed": "0xef5"
    },
    {
      "status": "0x1",
      "cumulativeGasUsed": "0x226c71",
      "logs": [
        {
          "address": "0xa7858cbb8be2cd50cc9e04e62ecd58bf86381137",
          "topics": [
            "0xbc7cd75a20ee27fd9adebab32041f755214dbc6bffa90cc0225b39da2e5c2d3b",
            "0x00000000000000000000000048dbe696a4d990079e039489ba2053b36e8ffec4"
          ],
          "data": "0x",
          "blockHash": "0x0000000000000000000000000000000000000000000000000000000000000000",
          "blockNumber": "0x2608b4d",
          "blockTimestamp": "0x69d4757a",
          "transactionHash": "0x5cc8dcaf1e3092115108dd214ad585ad8540c2756eb444720c34c888afc7b81e",
          "transactionIndex": "0x8",
          "logIndex": "0x2e",
          "removed": false
        },
        {
          "address": "0xa7858cbb8be2cd50cc9e04e62ecd58bf86381137",
          "topics": [
            "0x8be0079c531659141344cd1fd0a4f28419497f9722a3daafe3b4186f6b6457e0",
            "0x0000000000000000000000000000000000000000000000000000000000000000",
            "0x00000000000000000000000034bb8a6d8e8e81da6a6f3d51bf5bd25f2e5ef5a6"
          ],
          "data": "0x",
          "blockHash": "0x0000000000000000000000000000000000000000000000000000000000000000",
          "blockNumber": "0x2608b4d",
          "blockTimestamp": "0x69d4757a",
          "transactionHash": "0x5cc8dcaf1e3092115108dd214ad585ad8540c2756eb444720c34c888afc7b81e",
          "transactionIndex": "0x8",
          "logIndex": "0x2f",
          "removed": false
        },
        {
          "address": "0xa7858cbb8be2cd50cc9e04e62ecd58bf86381137",
          "topics": [
            "0xc7f505b2f371ae2175ee4913f4499e1f2633a7b5936321eed1cdaeb6115181d2"
          ],
          "data": "0x0000000000000000000000000000000000000000000000000000000000000001",
          "blockHash": "0x0000000000000000000000000000000000000000000000000000000000000000",
          "blockNumber": "0x2608b4d",
          "blockTimestamp": "0x69d4757a",
          "transactionHash": "0x5cc8dcaf1e3092115108dd214ad585ad8540c2756eb444720c34c888afc7b81e",
          "transactionIndex": "0x8",
          "logIndex": "0x30",
          "removed": false
        }
      ],
      "logsBloom": "0x00000000400000000000000000000000400000000000000000800000000800000000000000000000000000000000000000000000000000000000000000000000000008000000000000000000000002000001000000000000000000000000000000000000020000080000000000000800000000000000000000000000000000400000000000400000000800000010000000000000000080000000000000000000000000000000000000000000000000000000000000000000000000000000000000000420000001000000000020000000000000000004000000000000000020000000000000000000000000000000000000000000000000000000000000000000",
      "type": "0x2",
      "transactionHash": "0x5cc8dcaf1e3092115108dd214ad585ad8540c2756eb444720c34c888afc7b81e",
      "transactionIndex": "0x8",
      "blockHash": "0x0000000000000000000000000000000000000000000000000000000000000000",
      "blockNumber": "0x2608b4d",
      "gasUsed": "0x2cd03",
      "effectiveGasPrice": "0x5b8d80",
      "blobGasUsed": "0x1ed24",
      "from": "0x34bb8a6d8e8e81da6a6f3d51bf5bd25f2e5ef5a6",
      "to": null,
      "contractAddress": "0xa7858cbb8be2cd50cc9e04e62ecd58bf86381137",
      "daFootprintGasScalar": "0x94",
      "l1BaseFeeScalar": "0x44d",
      "l1BlobBaseFee": "0x4aeadf8",
      "l1BlobBaseFeeScalar": "0xa118b",
      "l1Fee": "0xf37423af9",
      "l1GasPrice": "0x53bec3ad",
      "l1GasUsed": "0x3554"
    },
    {
      "status": "0x1",
      "cumulativeGasUsed": "0x16507f",
      "logs": [
        {
          "address": "0xd4c2d166839a6ccdb9bf0f3cd292686587ae9eb6",
          "topics": [
            "0x3a37ea654e239f4f6554c1c0498a74550b2c9f20cf8ff06b1b5372ae638a3394",
            "0x000000000000000000000000a7858cbb8be2cd50cc9e04e62ecd58bf86381137",
            "0x00000000000000000000000034bb8a6d8e8e81da6a6f3d51bf5bd25f2e5ef5a6"
          ],
          "data": "0x0000000000000000000000000000000000000000000000000000000000000000",
          "blockHash": "0x0000000000000000000000000000000000000000000000000000000000000000",
          "blockNumber": "0x2608b4e",
          "blockTimestamp": "0x69d4757c",
          "transactionHash": "0x03197ac7f52ce016449270efc564b1d3ab547e70bdb0bdd4ff0007d136264801",
          "transactionIndex": "0x5",
          "logIndex": "0x46",
          "removed": false
        },
        {
          "address": "0x6baac44b3dc269012829e591d256ea8d5d8f15db",
          "topics": [
            "0x012c78e2b84325878b1bd9d250d772cfe5bda7722d795f45036fa5e1e6e303fc"
          ],
          "data": "0x000000000000000000000000000000000000000000000000000000000000002a",
          "blockHash": "0x0000000000000000000000000000000000000000000000000000000000000000",
          "blockNumber": "0x2608b4e",
          "blockTimestamp": "0x69d4757c",
          "transactionHash": "0x03197ac7f52ce016449270efc564b1d3ab547e70bdb0bdd4ff0007d136264801",
          "transactionIndex": "0x5",
          "logIndex": "0x47",
          "removed": false
        },
        {
          "address": "0xdb9b1e94b5b69df7e401ddbede43491141047db3",
          "topics": [
            "0x40dadaa36c6c2e3d7317e24757451ffb2d603d875f0ad5e92c5dd156573b1873",
            "0x000000000000000000000000a7858cbb8be2cd50cc9e04e62ecd58bf86381137",
            "0x00000000000000000000000034bb8a6d8e8e81da6a6f3d51bf5bd25f2e5ef5a6"
          ],
          "data": "0x000000000000000000000000000000000000000000000000000000000000002000000000000000000000000034bb8a6d8e8e81da6a6f3d51bf5bd25f2e5ef5a6000000000000000000000000a7858cbb8be2cd50cc9e04e62ecd58bf86381137ffffffffffffffffffffffffffffffffffffffffffffffffffffffffffffffff00000000000000000000000000000000000000000000000000000000000000c00000000000000000000000000000000000000000000000000000000000000000000000000000000000000000000000000000000000000000000000000000032000000000000000000000000000000000000000000000000000000000000000010000000000000000000000000000000000000000000000000000000000000020000000000000000000000000d4c2d166839a6ccdb9bf0f3cd292686587ae9eb60000000000000000000000000000000000000000000000000000000000000060000000000000000000000000000000000000000000000000000000000000008000000000000000000000000000000000000000000000000000000000000000000000000000000000000000000000000000000000000000000000000000000180000000000000000000000000a7858cbb8be2cd50cc9e04e62ecd58bf863811370000000000000000000000006baac44b3dc269012829e591d256ea8d5d8f15db00000000000000000000000000000000000000000000000000000000000000001ba4ef4b044b349263d97bfcb75527e90fc4b4237bef8d8cef16daded42c71e00000000000000000000000000000000000000000000000000000000000000000000000000000000000000000000000000000000000000000000000000000000000000000000000000000000034bb8a6d8e8e81da6a6f3d51bf5bd25f2e5ef5a600000000000000000000000000000000000000000000000000000000000001000000000000000000000000000000000000000000000000000000000000000041ab7045ad9c3a657ba56a469620f7908f5e93cf891a16c66ae88fe411693e8b51517863fd7d37953c05b937033639f234c8a4e9ed30ed3508ea48263083a3abcc1c00000000000000000000000000000000000000000000000000000000000000000000000000000000000000000000000000000000000000000000000000004180c036607e3b5d36c4940788831cc78566d9fe8321239e16809d0185af337dd92a0abe151dd62510a2745df37b4e5fdaf4c35d9ed608c079c0593bd81a4a80d41c00000000000000000000000000000000000000000000000000000000000000",
          "blockHash": "0x0000000000000000000000000000000000000000000000000000000000000000",
          "blockNumber": "0x2608b4e",
          "blockTimestamp": "0x69d4757c",
          "transactionHash": "0x03197ac7f52ce016449270efc564b1d3ab547e70bdb0bdd4ff0007d136264801",
          "transactionIndex": "0x5",
          "logIndex": "0x48",
          "removed": false
        }
      ],
      "logsBloom": "0x00000000400000000000000000200000000000000004000000000000000000000000000000000000000000000000000000400000008000000000000000000000010000000000000000000000020000000000200000000000000008000000000000000000000000000000000000000000000000000000000000400000000000000000000000000000000000000010000100000000000000000800000000000000000000000000000000000000000001008000000000000000000000000000000800000400000000000000000000000000000000000000004000000000000000000000000000000000000000000400800000000000000000000000100800004000",
      "type": "0x2",
      "transactionHash": "0x03197ac7f52ce016449270efc564b1d3ab547e70bdb0bdd4ff0007d136264801",
      "transactionIndex": "0x5",
      "blockHash": "0x0000000000000000000000000000000000000000000000000000000000000000",
      "blockNumber": "0x2608b4e",
      "gasUsed": "0x25b9c",
      "effectiveGasPrice": "0x5b8d80",
      "blobGasUsed": "0xe8fc",
      "from": "0x34bb8a6d8e8e81da6a6f3d51bf5bd25f2e5ef5a6",
      "to": "0xdb9b1e94b5b69df7e401ddbede43491141047db3",
      "contractAddress": null,
      "daFootprintGasScalar": "0x94",
      "l1BaseFeeScalar": "0x44d",
      "l1BlobBaseFee": "0x4b7ad5d",
      "l1BlobBaseFeeScalar": "0xa118b",
      "l1Fee": "0x1cd10d93c",
      "l1GasPrice": "0x5506a8e3",
      "l1GasUsed": "0x1934"
    }
  ],
  "libraries": [],
  "pending": [],
  "returns": {},
  "timestamp": 1775531398912,
  "chain": 84532,
  "commit": "7346044"
}